{
  "contractName": "CallerContract",
  "abi": [
    {
      "anonymous": false,
      "inputs": [
        {
          "indexed": true,
          "internalType": "address",
          "name": "previousOwner",
          "type": "address"
        },
        {
          "indexed": true,
          "internalType": "address",
          "name": "newOwner",
          "type": "address"
        }
      ],
      "name": "OwnershipTransferred",
      "type": "event"
    },
    {
      "anonymous": false,
      "inputs": [
        {
          "indexed": false,
          "internalType": "uint256",
          "name": "ethPrice",
          "type": "uint256"
        },
        {
          "indexed": false,
          "internalType": "uint256",
          "name": "id",
          "type": "uint256"
        }
      ],
      "name": "PriceUpdatedEvent",
      "type": "event"
    },
    {
      "anonymous": false,
      "inputs": [
        {
          "indexed": false,
          "internalType": "uint256",
          "name": "id",
          "type": "uint256"
        }
      ],
      "name": "RecievedNewRequestIdEvent",
      "type": "event"
    },
    {
      "anonymous": false,
      "inputs": [
        {
          "indexed": false,
          "internalType": "address",
          "name": "oracleAddress",
          "type": "address"
        }
      ],
      "name": "newOracleAddressEvent",
      "type": "event"
    },
    {
      "inputs": [],
      "name": "owner",
      "outputs": [
        {
          "internalType": "address",
          "name": "",
          "type": "address"
        }
      ],
      "stateMutability": "view",
      "type": "function"
    },
    {
      "inputs": [],
      "name": "renounceOwnership",
      "outputs": [],
      "stateMutability": "nonpayable",
      "type": "function"
    },
    {
      "inputs": [
        {
          "internalType": "address",
          "name": "newOwner",
          "type": "address"
        }
      ],
      "name": "transferOwnership",
      "outputs": [],
      "stateMutability": "nonpayable",
      "type": "function"
    },
    {
      "inputs": [
        {
          "internalType": "address",
          "name": "_oracleInstnanceAddress",
          "type": "address"
        }
      ],
      "name": "setOracleInstanceAddress",
      "outputs": [],
      "stateMutability": "nonpayable",
      "type": "function"
    },
    {
      "inputs": [],
      "name": "updateIcpPrice",
      "outputs": [],
      "stateMutability": "nonpayable",
      "type": "function"
    },
    {
      "inputs": [
        {
          "internalType": "uint256",
          "name": "_icpPrice",
          "type": "uint256"
        },
        {
          "internalType": "uint256",
          "name": "_id",
          "type": "uint256"
        }
      ],
      "name": "callback",
      "outputs": [],
      "stateMutability": "nonpayable",
      "type": "function"
    }
  ],
  "bytecode": "0x608060405234801561001057600080fd5b5061002d61002261003260201b60201c565b61003a60201b60201c565b6100fe565b600033905090565b60008060009054906101000a900473ffffffffffffffffffffffffffffffffffffffff169050816000806101000a81548173ffffffffffffffffffffffffffffffffffffffff021916908373ffffffffffffffffffffffffffffffffffffffff1602179055508173ffffffffffffffffffffffffffffffffffffffff168173ffffffffffffffffffffffffffffffffffffffff167f8be0079c531659141344cd1fd0a4f28419497f9722a3daafe3b4186f6b6457e060405160405180910390a35050565b610a188061010d6000396000f3fe608060405234801561001057600080fd5b50600436106100625760003560e01c806304d97bde14610067578063715018a6146100715780638da5cb5b1461007b578063b5d73ba414610099578063e9e17a9e146100b5578063f2fde38b146100d1575b600080fd5b61006f6100ed565b005b6100796101f9565b005b610083610281565b60405161009091906108a8565b60405180910390f35b6100b360048036038101906100ae9190610742565b6102aa565b005b6100cf60048036038101906100ca91906106f0565b610371565b005b6100eb60048036038101906100e691906106f0565b6104ed565b005b6000600260009054906101000a900473ffffffffffffffffffffffffffffffffffffffff1673ffffffffffffffffffffffffffffffffffffffff16639b9568336040518163ffffffff1660e01b8152600401602060405180830381600087803b15801561015957600080fd5b505af115801561016d573d6000803e3d6000fd5b505050506040513d601f19601f820116820180604052508101906101919190610719565b905060016004600083815260200190815260200160002060006101000a81548160ff0219169083151502179055507f3bf7a3c9c54f1ff10446273b0ad8c634c69e060755a65ff29289bdd5168c4046816040516101ee9190610923565b60405180910390a150565b6102016105e5565b73ffffffffffffffffffffffffffffffffffffffff1661021f610281565b73ffffffffffffffffffffffffffffffffffffffff1614610275576040517f08c379a000000000000000000000000000000000000000000000000000000000815260040161026c906108e3565b60405180910390fd5b61027f60006105ed565b565b60008060009054906101000a900473ffffffffffffffffffffffffffffffffffffffff16905090565b6004600082815260200190815260200160002060009054906101000a900460ff1661030a576040517f08c379a000000000000000000000000000000000000000000000000000000000815260040161030190610903565b60405180910390fd5b816001819055506004600082815260200190815260200160002060006101000a81549060ff02191690557f6b69e4f2aedf7e65a79ecaf16e8869b2b99c87e341f2c51286bfd4a7fc3b9969828260405161036592919061093e565b60405180910390a15050565b6103796105e5565b73ffffffffffffffffffffffffffffffffffffffff16610397610281565b73ffffffffffffffffffffffffffffffffffffffff16146103ed576040517f08c379a00000000000000000000000000000000000000000000000000000000081526004016103e4906108e3565b60405180910390fd5b80600360006101000a81548173ffffffffffffffffffffffffffffffffffffffff021916908373ffffffffffffffffffffffffffffffffffffffff160217905550600360009054906101000a900473ffffffffffffffffffffffffffffffffffffffff16600260006101000a81548173ffffffffffffffffffffffffffffffffffffffff021916908373ffffffffffffffffffffffffffffffffffffffff1602179055507f441e3b056b114797955165bd03bb8393fc1658a713f09225de4745a8d068bf7d600360009054906101000a900473ffffffffffffffffffffffffffffffffffffffff166040516104e291906108a8565b60405180910390a150565b6104f56105e5565b73ffffffffffffffffffffffffffffffffffffffff16610513610281565b73ffffffffffffffffffffffffffffffffffffffff1614610569576040517f08c379a0000000000000000000000000000000000000000000000000000000008152600401610560906108e3565b60405180910390fd5b600073ffffffffffffffffffffffffffffffffffffffff168173ffffffffffffffffffffffffffffffffffffffff1614156105d9576040517f08c379a00000000000000000000000000000000000000000000000000000000081526004016105d0906108c3565b60405180910390fd5b6105e2816105ed565b50565b600033905090565b60008060009054906101000a900473ffffffffffffffffffffffffffffffffffffffff169050816000806101000a81548173ffffffffffffffffffffffffffffffffffffffff021916908373ffffffffffffffffffffffffffffffffffffffff1602179055508173ffffffffffffffffffffffffffffffffffffffff168173ffffffffffffffffffffffffffffffffffffffff167f8be0079c531659141344cd1fd0a4f28419497f9722a3daafe3b4186f6b6457e060405160405180910390a35050565b6000813590506106c0816109b4565b92915050565b6000813590506106d5816109cb565b92915050565b6000815190506106ea816109cb565b92915050565b60006020828403121561070257600080fd5b6000610710848285016106b1565b91505092915050565b60006020828403121561072b57600080fd5b6000610739848285016106db565b91505092915050565b6000806040838503121561075557600080fd5b6000610763858286016106c6565b9250506020610774858286016106c6565b9150509250929050565b61078781610978565b82525050565b600061079a602683610967565b91507f4f776e61626c653a206e6577206f776e657220697320746865207a65726f206160008301527f64647265737300000000000000000000000000000000000000000000000000006020830152604082019050919050565b6000610800602083610967565b91507f4f776e61626c653a2063616c6c6572206973206e6f7420746865206f776e65726000830152602082019050919050565b6000610840602683610967565b91507f546869732072657175657374206973206e6f7420696e206d792070656e64696e60008301527f67206c69737400000000000000000000000000000000000000000000000000006020830152604082019050919050565b6108a2816109aa565b82525050565b60006020820190506108bd600083018461077e565b92915050565b600060208201905081810360008301526108dc8161078d565b9050919050565b600060208201905081810360008301526108fc816107f3565b9050919050565b6000602082019050818103600083015261091c81610833565b9050919050565b60006020820190506109386000830184610899565b92915050565b60006040820190506109536000830185610899565b6109606020830184610899565b9392505050565b600082825260208201905092915050565b60006109838261098a565b9050919050565b600073ffffffffffffffffffffffffffffffffffffffff82169050919050565b6000819050919050565b6109bd81610978565b81146109c857600080fd5b50565b6109d4816109aa565b81146109df57600080fd5b5056fea2646970667358221220dcab119aa1878b4e28ee2cae9cf4cdf0599b1356a210282545fda3600716558a64736f6c63430008000033",
  "immutableReferences": {},
  "source": "// SPDX-License-Identifier: MIT\n\npragma solidity 0.8.0;\nimport \"./IcpPriceOracleInterface.sol\";\nimport \"openzeppelin-solidity/contracts/access/Ownable.sol\";\ncontract CallerContract is Ownable {\n    uint256 private icpPrice;\n    IcpPriceOracleInterface private oracleInstance;\n    address private oracleAddress;\n    mapping(uint256=>bool) myRequests;\n    event newOracleAddressEvent(address oracleAddress);\n    event RecievedNewRequestIdEvent(uint256 id);\n    event PriceUpdatedEvent(uint256 ethPrice, uint256 id);\n    function setOracleInstanceAddress(address _oracleInstnanceAddress) public onlyOwner {\n        oracleAddress = _oracleInstnanceAddress;\n        oracleInstance = IcpPriceOracleInterface(oracleAddress);\n        emit newOracleAddressEvent(oracleAddress); \n    }\n    function updateIcpPrice() public {\n        uint256 id = oracleInstance.getLatestIcpPrice();\n        myRequests[id] = true;\n        emit RecievedNewRequestIdEvent(id);\n    }\n    function callback(uint256 _icpPrice, uint256 _id) public {\n        require(myRequests[_id], \"This request is not in my pending list\");\n        icpPrice = _icpPrice;\n        delete myRequests[_id];\n        emit PriceUpdatedEvent(_icpPrice, _id);\n    }\n    modifier onlyOracle() {\n        require(msg.sender == oracleAddress, \"You are not authorized to call this function.\");\n        _;\n    }\n\n}",
  "sourcePath": "/home/swaich/Projects/IcpPriceOracle/caller/contracts/CallerContract.sol",
  "compiler": {
    "name": "solc",
    "version": "0.8.0+commit.c7dfd78e.Emscripten.clang"
  },
  "schemaVersion": "3.4.1",
  "updatedAt": "2021-07-03T17:26:39.530Z",
  "devdoc": {
    "kind": "dev",
    "methods": {
      "owner()": {
        "details": "Returns the address of the current owner."
      },
      "renounceOwnership()": {
        "details": "Leaves the contract without owner. It will not be possible to call `onlyOwner` functions anymore. Can only be called by the current owner. NOTE: Renouncing ownership will leave the contract without an owner, thereby removing any functionality that is only available to the owner."
      },
      "transferOwnership(address)": {
        "details": "Transfers ownership of the contract to a new account (`newOwner`). Can only be called by the current owner."
      }
    },
    "version": 1
  },
  "userdoc": {
    "kind": "user",
    "methods": {},
    "version": 1
  }
}