{
  "contractName": "IcpPriceOracle",
  "abi": [
    {
      "anonymous": false,
      "inputs": [
        {
          "indexed": false,
          "internalType": "address",
          "name": "callerAddress",
          "type": "address"
        },
        {
          "indexed": false,
          "internalType": "uint256",
          "name": "id",
          "type": "uint256"
        }
      ],
      "name": "GetLatestIcpPriceEvent",
      "type": "event"
    },
    {
      "anonymous": false,
      "inputs": [
        {
          "indexed": true,
          "internalType": "address",
          "name": "previousOwner",
          "type": "address"
        },
        {
          "indexed": true,
          "internalType": "address",
          "name": "newOwner",
          "type": "address"
        }
      ],
      "name": "OwnershipTransferred",
      "type": "event"
    },
    {
      "anonymous": false,
      "inputs": [
        {
          "indexed": false,
          "internalType": "uint256",
          "name": "icpPrice",
          "type": "uint256"
        },
        {
          "indexed": false,
          "internalType": "address",
          "name": "callerAddress",
          "type": "address"
        }
      ],
      "name": "SetLatestIcpPriceEvent",
      "type": "event"
    },
    {
      "inputs": [],
      "name": "owner",
      "outputs": [
        {
          "internalType": "address",
          "name": "",
          "type": "address"
        }
      ],
      "stateMutability": "view",
      "type": "function",
      "constant": true
    },
    {
      "inputs": [],
      "name": "renounceOwnership",
      "outputs": [],
      "stateMutability": "nonpayable",
      "type": "function"
    },
    {
      "inputs": [
        {
          "internalType": "address",
          "name": "newOwner",
          "type": "address"
        }
      ],
      "name": "transferOwnership",
      "outputs": [],
      "stateMutability": "nonpayable",
      "type": "function"
    },
    {
      "inputs": [],
      "name": "getLatestIcpPrice",
      "outputs": [
        {
          "internalType": "uint256",
          "name": "",
          "type": "uint256"
        }
      ],
      "stateMutability": "nonpayable",
      "type": "function"
    },
    {
      "inputs": [
        {
          "internalType": "uint256",
          "name": "_icpPrice",
          "type": "uint256"
        },
        {
          "internalType": "address",
          "name": "_callerAddress",
          "type": "address"
        },
        {
          "internalType": "uint256",
          "name": "_id",
          "type": "uint256"
        }
      ],
      "name": "setLatestIcpPrice",
      "outputs": [],
      "stateMutability": "nonpayable",
      "type": "function"
    }
  ],
  "bytecode": "0x608060405260006001556103e860025534801561001b57600080fd5b5061003861002d61003d60201b60201c565b61004560201b60201c565b610109565b600033905090565b60008060009054906101000a900473ffffffffffffffffffffffffffffffffffffffff169050816000806101000a81548173ffffffffffffffffffffffffffffffffffffffff021916908373ffffffffffffffffffffffffffffffffffffffff1602179055508173ffffffffffffffffffffffffffffffffffffffff168173ffffffffffffffffffffffffffffffffffffffff167f8be0079c531659141344cd1fd0a4f28419497f9722a3daafe3b4186f6b6457e060405160405180910390a35050565b610ad2806101186000396000f3fe608060405234801561001057600080fd5b50600436106100575760003560e01c8063715018a61461005c5780638da5cb5b146100665780639b95683314610084578063e8897634146100a2578063f2fde38b146100be575b600080fd5b6100646100da565b005b61006e610162565b60405161007b91906107fd565b60405180910390f35b61008c61018b565b60405161009991906108a1565b60405180910390f35b6100bc60048036038101906100b79190610619565b610252565b005b6100d860048036038101906100d391906105f0565b610402565b005b6100e26104fa565b73ffffffffffffffffffffffffffffffffffffffff16610100610162565b73ffffffffffffffffffffffffffffffffffffffff1614610156576040517f08c379a000000000000000000000000000000000000000000000000000000000815260040161014d90610861565b60405180910390fd5b6101606000610502565b565b60008060009054906101000a900473ffffffffffffffffffffffffffffffffffffffff16905090565b6000600160008154809291906101a09061095b565b9190505550600060025442336001546040516020016101c1939291906107c0565b6040516020818303038152906040528051906020012060001c6101e491906109d2565b905060016003600083815260200190815260200160002060006101000a81548160ff0219169083151502179055507fdf184bb950b02186f21f335dfaafe302cf52fa19b0f8af9378d21045f2b988e23382604051610243929190610818565b60405180910390a18091505090565b61025a6104fa565b73ffffffffffffffffffffffffffffffffffffffff16610278610162565b73ffffffffffffffffffffffffffffffffffffffff16146102ce576040517f08c379a00000000000000000000000000000000000000000000000000000000081526004016102c590610861565b60405180910390fd5b6003600082815260200190815260200160002060009054906101000a900460ff1661032e576040517f08c379a000000000000000000000000000000000000000000000000000000000815260040161032590610881565b60405180910390fd5b6003600082815260200190815260200160002060006101000a81549060ff021916905560008290508073ffffffffffffffffffffffffffffffffffffffff1663b5d73ba485846040518363ffffffff1660e01b81526004016103919291906108e5565b600060405180830381600087803b1580156103ab57600080fd5b505af11580156103bf573d6000803e3d6000fd5b505050507f11269af3996a4f1feffb6163fb8f8a111e47f5f3c25a5497ba51f01c0c953ef084846040516103f49291906108bc565b60405180910390a150505050565b61040a6104fa565b73ffffffffffffffffffffffffffffffffffffffff16610428610162565b73ffffffffffffffffffffffffffffffffffffffff161461047e576040517f08c379a000000000000000000000000000000000000000000000000000000000815260040161047590610861565b60405180910390fd5b600073ffffffffffffffffffffffffffffffffffffffff168173ffffffffffffffffffffffffffffffffffffffff1614156104ee576040517f08c379a00000000000000000000000000000000000000000000000000000000081526004016104e590610841565b60405180910390fd5b6104f781610502565b50565b600033905090565b60008060009054906101000a900473ffffffffffffffffffffffffffffffffffffffff169050816000806101000a81548173ffffffffffffffffffffffffffffffffffffffff021916908373ffffffffffffffffffffffffffffffffffffffff1602179055508173ffffffffffffffffffffffffffffffffffffffff168173ffffffffffffffffffffffffffffffffffffffff167f8be0079c531659141344cd1fd0a4f28419497f9722a3daafe3b4186f6b6457e060405160405180910390a35050565b6000813590506105d581610a6e565b92915050565b6000813590506105ea81610a85565b92915050565b60006020828403121561060257600080fd5b6000610610848285016105c6565b91505092915050565b60008060006060848603121561062e57600080fd5b600061063c868287016105db565b935050602061064d868287016105c6565b925050604061065e868287016105db565b9150509250925092565b6106718161091f565b82525050565b6106886106838261091f565b6109a4565b82525050565b600061069b60268361090e565b91507f4f776e61626c653a206e6577206f776e657220697320746865207a65726f206160008301527f64647265737300000000000000000000000000000000000000000000000000006020830152604082019050919050565b600061070160208361090e565b91507f4f776e61626c653a2063616c6c6572206973206e6f7420746865206f776e65726000830152602082019050919050565b600061074160278361090e565b91507f546869732072657175657374206973206e6f7420696e206d792070656e64696e60008301527f67206c6973742e000000000000000000000000000000000000000000000000006020830152604082019050919050565b6107a381610951565b82525050565b6107ba6107b582610951565b6109c8565b82525050565b60006107cc82866107a9565b6020820191506107dc8285610677565b6014820191506107ec82846107a9565b602082019150819050949350505050565b60006020820190506108126000830184610668565b92915050565b600060408201905061082d6000830185610668565b61083a602083018461079a565b9392505050565b6000602082019050818103600083015261085a8161068e565b9050919050565b6000602082019050818103600083015261087a816106f4565b9050919050565b6000602082019050818103600083015261089a81610734565b9050919050565b60006020820190506108b6600083018461079a565b92915050565b60006040820190506108d1600083018561079a565b6108de6020830184610668565b9392505050565b60006040820190506108fa600083018561079a565b610907602083018461079a565b9392505050565b600082825260208201905092915050565b600061092a82610931565b9050919050565b600073ffffffffffffffffffffffffffffffffffffffff82169050919050565b6000819050919050565b600061096682610951565b91507fffffffffffffffffffffffffffffffffffffffffffffffffffffffffffffffff82141561099957610998610a03565b5b600182019050919050565b60006109af826109b6565b9050919050565b60006109c182610a61565b9050919050565b6000819050919050565b60006109dd82610951565b91506109e883610951565b9250826109f8576109f7610a32565b5b828206905092915050565b7f4e487b7100000000000000000000000000000000000000000000000000000000600052601160045260246000fd5b7f4e487b7100000000000000000000000000000000000000000000000000000000600052601260045260246000fd5b60008160601b9050919050565b610a778161091f565b8114610a8257600080fd5b50565b610a8e81610951565b8114610a9957600080fd5b5056fea2646970667358221220a3deda361ea2e3c39a2facaa6013846aa966197e9ef33817e5eedbfd014ec40b64736f6c63430008000033",
  "immutableReferences": {},
  "source": "// SPDX-License-Identifier: MIT\n\npragma solidity 0.8.0;\nimport \"openzeppelin-solidity/contracts/access/Ownable.sol\";\nimport \"./CallerContractInterface.sol\";\ncontract IcpPriceOracle is Ownable {\n  uint private randNonce = 0;\n  uint private modulus = 1000;\n  mapping(uint256=>bool) pendingRequests;\n  event GetLatestIcpPriceEvent(address callerAddress, uint id);\n  event SetLatestIcpPriceEvent(uint256 icpPrice, address callerAddress);\n  function getLatestIcpPrice() public returns (uint256) {\n    randNonce++;\n    uint id = uint(keccak256(abi.encodePacked(block.timestamp, msg.sender, randNonce))) % modulus;\n    pendingRequests[id] = true;\n    emit GetLatestIcpPriceEvent(msg.sender, id);\n    return id;\n  }\n  function setLatestIcpPrice(uint256 _icpPrice, address _callerAddress, uint256 _id) public onlyOwner {\n    require(pendingRequests[_id], \"This request is not in my pending list.\");\n    delete pendingRequests[_id];\n    CallerContractInterface callerContractInstance;\n    callerContractInstance = CallerContractInterface(_callerAddress);\n    callerContractInstance.callback(_icpPrice, _id);\n    emit SetLatestIcpPriceEvent(_icpPrice, _callerAddress);  \n    }\n}\n",
  "sourcePath": "/home/swaich/Projects/IcpPriceOracle/oracle/contracts/IcpPriceOracle.sol",
  "compiler": {
    "name": "solc",
    "version": "0.8.0+commit.c7dfd78e.Emscripten.clang"
  },
  "schemaVersion": "3.4.1",
  "updatedAt": "2021-07-11T18:31:03.267Z",
  "networkType": "ethereum",
  "devdoc": {
    "kind": "dev",
    "methods": {
      "owner()": {
        "details": "Returns the address of the current owner."
      },
      "renounceOwnership()": {
        "details": "Leaves the contract without owner. It will not be possible to call `onlyOwner` functions anymore. Can only be called by the current owner. NOTE: Renouncing ownership will leave the contract without an owner, thereby removing any functionality that is only available to the owner."
      },
      "transferOwnership(address)": {
        "details": "Transfers ownership of the contract to a new account (`newOwner`). Can only be called by the current owner."
      }
    },
    "version": 1
  },
  "userdoc": {
    "kind": "user",
    "methods": {},
    "version": 1
  }
}